:10000000CAC10000F0C10000EEC10000ECC1000058
:10001000EAC10000E8C10000E6C10000E4C1000040
:10002000E2C10000E0C100000C94ED0D0C94660EDE
:10003000DAC10000D8C10000D6C10000D4C1000060
:10004000D2C10000D0C10000CEC10000CCC1000070
:10005000CAC10000C8C10000C6C100000C944C0D0C
:10006000C2C10000C0C10000BEC10000BCC1000090
:10007000BAC10000B8C10000B6C10000B4C10000A0
:10008000B2C10000B0C10000AEC10000ACC10000B0
:10009000AAC10000A8C10000A6C10000A4C10000C0
:1000A000A2C10000A0C100009EC100006364696E8F
:1000B0006F70737578585B004578703A202564201E
:1000C00063686172732C20676F742025642E004171
:1000D000544E434D443A204945435F4552524F5296
:1000E00021005472616E73666572726564202575B5
:1000F000206F662025752062797465732E00476F26
:100100007420756E6578702E20636D64207265733F
:10011000702E636861722E00257520486F737420FD
:1001200062797465732065787065637465642C20EA
:10013000676F742025752C2073746F7070696E67FB
:100140002E003220486F73742062797465732065C5
:10015000787065637465642C2073746F7070696E59
:100160006700456E64696E67206174206368617220
:100170003A2025642E0045787065637465643A20E2
:1001800025642063686172732C20676F7420256476
:100190002E004425632563002125630053495745FC
:1001A000004D1B0149200146240141726475696EAE
:1001B0006F2074696D652073657420746F3A202513
:1001C0003034752D253032752D253032752E253081
:1001D00032753A253032753A25303275004945433B
:1001E0002070696E733A2041544E3A257520434C75
:1001F0004B3A257520444154413A257520525354B9
:100200003A257520535251494E3A257500434F4EB9
:100210004E45435445442C20524541445920464FB5
:1002200052204945432044415441205749544820D5
:1002300043424D204153204445562025752E00252C
:10024000757C25757C25757C25757C25757C2575CB
:100250007C25752D25752D25752E25753A25753A24
:100260002575004F4B3E00636F6E6E6563745F6172
:10027000726475696E6F3A25750A000123022304C2
:1002800023082380230129022904290829402680E4
:100290002640298029102320234023802F402F200F
:1002A0002F102F022F012F10292029402C7DFD7D9A
:1002B000FB7DF77DEF7DDF7E7F7EBF7EDF7EEF7E85
:1002C000FD7EFE7DFE0001000076031200020000AC
:1002D000330343000300002F030401030904150343
:1002E0001802030904FD021603030904EF020C0CB3
:1002F000033100320033003400350000001603558E
:100300000053004200200053006500720069006144
:10031000006C00000018035400650065006E007357
:100320000079006400750069006E006F0000000431
:1003300003090409024300020100C032090400005D
:10034000010202010005240010010524010001043E
:10035000240206052406000107058203080040095F
:10036000040100020A000000070503024000000724
:100370000584024000001201000202000020C016A5
:1003800083047102010203010001C10201803601F0
:1003900081369B09301311241FBECFEFDAE0DEBF98
:1003A000CDBF11E0A0E0B1E0ECE4F3E302C00590C2
:1003B0000D92AC33B107D9F722E0ACE3B1E001C054
:1003C0001D92A037B207E1F711E0CBECD1E004C0F9
:1003D0002197FE010E94CC13C93CD107C9F70E94A6
:1003E000BD100C94A4190CCECF93C62F862F0E945B
:1003F000BE0BEC2FF0E00E94B40C81E0E11101C0D3
:1004000080E0CF910895FC016281EECFCF93DF931E
:10041000C62FD42F642F8C2F0E94110CEC2FF0E0EC
:1004200081E0D8270D2E0E94180CDF91CF910895FE
:10043000462FFC016381EACF462FFC016481E6CFA1
:10044000FC011082618383E1828385E1838384E1FF
:10045000848381E186830895CF92DF92EF92FF92A9
:100460000F931F93CF93DF93EC01E62ED42E08EE6B
:100470001DEFCC24C39488E0F82E6E2DCE01B4DF9E
:10048000D1108C2581111DC08F2D81500000E9F7FE
:100490000150110991F760E0CE01CEDF60E0CE019E
:1004A000C7DF84E08883CE01AEDF8823E1F381E0FB
:1004B000DF91CF911F910F91FF90EF90DF90CF9040
:1004C000089580E0F5CFEF92FF920F931F93CF93A3
:1004D000DF93EC01188240E06C81BEDFE82E8823B8
:1004E00049F0E12C8E2DDF91CF911F910F91FF905C
:1004F000EF90089560E0CE019BDF00E018E26C8190
:10050000CE0172DF882341F0043161F1812F8150E7
:100510000000E9F70F5FF3CF043121F1CE0173DF63
:10052000811103C088818260888308E0F12CF594F2
:10053000E79440E06C81CE018FDF8111D2CF6B81D7
:10054000CE0152DF10E0811110E8E12A41E06C8118
:10055000CE0182DF8111C5CF015041F761E0CE01AC
:1005600067DFC0CF88818160888361E0CE0160DF72
:1005700088E191E00197F1F760E0CE0159DF41E0B9
:100580006C81CE0169DF882309F4C8CFAACFEF922E
:10059000FF920F931F93CF93DF93EC01062F142F3D
:1005A00041E06B8159DF882311F090E039C060E0B1
:1005B000CE0142DF40E06B81CE014EDF8111F5CFED
:1005C000111136C080E581500000E9F718E088E19C
:1005D000E82EFF24F39461E0CE012EDF602F6095BA
:1005E0006170CE0125DFC7010197F1F760E0CE0110
:1005F00023DFC7010197F1F70695115061F761E01C
:10060000CE011ADF60E0CE0113DF80E581500000EB
:10061000E9F741E06B81CE011FDF91E08111C5CF89
:10062000892FDF91CF911F910F91FF90EF90089547
:1006300080E293E00197F1F741E06B81CE010CDF9E
:100640008111B3CF40E06B81CE0106DF882309F42E
:10065000B9CFABCF0F931F93CF93DF938C0140E0C3
:10066000FC016481F9DE811113C060E0C801E0DEA5
:10067000C8E1D1E0CE010197F1F761E0C801DCDE0D
:100680002197F1F781E0DF91CF911F910F910895AC
:1006900080E0F9CF0F931F93CF93DF938C0161E03C
:1006A000C7DEC8E1D1E0CE010197F1F760E0C801F3
:1006B000C3DE2197F1F741E0F8016481C801CCDE87
:1006C00091E0811190E0892FDF91CF911F910F91DF
:1006D0000895CF92DF92EF92FF921F93CF93DF9313
:1006E000EC017B0190DE811188C061E0CE01A0DECB
:1006F00060E0CE01A1DE88EC81500000E9F7CE0178
:10070000E2DE988192FF0AC084E090E0DF91CF9111
:100710001F91FF90EF90DF90CF9008959981292F3E
:100720002062821331C0CE01CEDE988192FDECCFE3
:10073000F7018083982F907F9036D1F48F708F309F
:1007400009F062C06701FFEFCF1ADF0A10E0CE01A7
:10075000BADE988192FDD8CF91FF03C08F3309F4A0
:1007600057C0183289F21F5FF60181936F01EFCFF6
:100770008F3341F710E090E080E0E0E9F1E031975D
:10078000F1F7F70111A7C2CF9064891327C0CE01FA
:100790009ADE988192FDB8CFF70181936F0110E046
:1007A000CE0131DE811112C06C81CE011DDE8823A5
:1007B000B9F3CE0188DE988192FDA6CF183209F4F4
:1007C000A3CF1F5FF60181936F01EACFCE0142DF15
:1007D000882309F499CF83E090E0CFCF80E991E0BE
:1007E0000197F1F760E0CE0123DE60E0CE0124DE68
:1007F000CE0109DE8823E1F3BDCF60E0CE0118DE33
:1008000060E0CE0119DEB6CF10E082E090E0B5CF17
:1008100081E090E0B2CFFC016681E6DD91E08927BE
:10082000089551CE40E0B3CECF93DF93EC0141E089
:10083000AEDE882321F0CE01DF91CF912BCF80E077
:10084000DF91CF910895CF93DF93EC0160E0F0DD6D
:1008500060E0CE01F1DD80E991E00197F1F781E000
:10086000DF91CF910895CF93DF93EC018A8175D703
:100870008B8173D78C8171D78A81E82FF0E0E1D723
:10088000EB81F0E0DED7EC81F0E0DBD777D78B812E
:1008900075D78C8173D78E8171D7188281E0DF91F3
:1008A000CF910895FC0181810895FC016183089531
:1008B000EF920F93FC01628344832383E6820583D6
:1008C0000F91EF900895FC01808190E008950895C4
:1008D0000C94C110CF93DF931F92CDB7DEB769831D
:1008E000DC01ED91FC910280F381E02D41E050E0CC
:1008F000BE016F5F7F4F09950F90DF91CF910895F3
:10090000FC0187E191E091838083738362838CEBA8
:1009100091E0928B818B148289E485830895CF9234
:10092000DF92EF92FF920F931F93CF93DF937C019F
:100930006A01E901062F10E0B8016D5F7F4F8881E1
:100940009981680F791F79836883F7018281938188
:1009500069DF6981F7018281938164DFE6010C0D13
:100960001D1DF70182819381C017D10719F069918C
:1009700059DFF7CF60E0DF91CF911F910F91FF908A
:10098000EF90DF90CF904ECFCF92EF920F93FC017C
:100990000FB6F8948091570290915802A091590295
:1009A000B0915A020FBE85879687A787B08B778351
:1009B0006683408721870287E386C4860F91EF9084
:1009C000CF900895EF92FF921F93CF93DF937C0116
:1009D00065E482E692E07EDFF701658182E692E0DF
:1009E00079DF82E692E00E941B1382E692E00E9489
:1009F000C210892BD1F341E050E06CE371E082E654
:100A000092E00E948E128130B1F780913C018A33CE
:100A100091F720E031E04CE351E06AE082E692E0B9
:100A20000E9485108823D1F010E0282F2250330B2C
:100A3000E901212F30E0F70182819381F901E45C23
:100A4000FE4F60812C173D071CF4ECDE1F5FF1CFD9
:100A5000DF91CF911F91FF90EF90E6CEDF91CF9184
:100A60001F91FF90EF9008950F931F93CF93DF9303
:100A7000EB010CE311E08FE4F801808388818F7033
:100A8000828349A550E06F5F7F4F8FE391E00E9422
:100A9000EC1349A54D5FF801418350E0B80182E6AF
:100AA00092E0DF91CF911F910F910C943D111F9314
:100AB000CF93DF93EC0141E050E062E271E082E627
:100AC00092E00E943D1182E692E00E941B1382E6B2
:100AD00092E00E94C2100297D4F342E050E06CE32F
:100AE00071E082E692E00E948E1280913C01982F84
:100AF0009F7D9E3499F510913D01C12FD0E082E693
:100B000092E00E94C2108C179D07CCF3AE016CE3FB
:100B100071E082E692E00E948E12181799F19927EF
:100B20009F938F93DF93CF9388EB90E09F938F9366
:100B30008CE391E09F938F930E94F5138DB79EB73E
:100B400008960FB6F8949EBF0FBE8DBF4CE351E0E0
:100B500066E483E0DF91CF911F91A0C3833491F4C9
:100B60008A819B819FDE60913D01262F062E000C1D
:100B7000330B8217130631F08A819B81DF91CF916D
:100B80001F9193CEDF91CF911F910895DF92EF9245
:100B9000FF920F931F93CF93DF9300D0CDB7DEB7B3
:100BA0008C0181E098E09A838983F89461E0F801F0
:100BB0008281938137DE68E0F8018281938132DEA1
:100BC000789482E692E00E942F136CE482E692E031
:100BD00081DE82E692E00E941B1382E692E00E9490
:100BE0002F1382E692E00E94C210892BD1F342E0DB
:100BF00050E06CE371E082E692E00E948E122CE3FA
:100C000031E080913C018C3409F04EC0D0903D0120
:100C1000ED2CF12C82E692E00E94C2108E159F0509
:100C2000CCF3A7016CE371E082E692E00E948E12A1
:100C3000D8120BC0F8949E012F5F3F4F4CE351E058
:100C40006D2DC8016CDE7894C0CF99279F938F9348
:100C5000FF92EF9286E791E09F938F938CE391E070
:100C60009F938F930E94F5134CE351E066E483E079
:100C700015D30FB6F894DEBF0FBECDBFF89460E079
:100C8000F80182819381CEDD60E0F8018281938159
:100C9000CBDD78940F900F90DF91CF911F910F9142
:100CA000FF90EF90DF9008958C3641F31F928F9361
:100CB00082E691E09F938F933F932F930E94F513C9
:100CC0004CE351E066E483E0E9D20F900F900F907F
:100CD0000F900F900F9082E692E00E94C210892B35
:100CE000D1F340E051E06CE371E082E692E00E94D3
:100CF0008E124CE351E066E483E0D0D2BFCFEF9296
:100D0000FF920F931F93CF93DF938C0187E580931E
:100D10003C018EE3E82E81E0F82EC2E0F894F80161
:100D2000828193817EDDCF5FF70181937F0178948B
:100D3000F80182819381C7DD80FD20C0F8018281A6
:100D40009381C1DD82FD1AC0C03F41F7D0E0C0935E
:100D50003D014C2F50E06CE371E082E692E00E948E
:100D60003D1182E692E00E942F13DD2391F2DF9184
:100D7000CF911F910F91FF90EF900895D1E0E7CFB1
:100D8000CF93DF93EC0110923C0141E050E06CE323
:100D900071E082E692E00E948E128130B1F780917C
:100DA0003C018E3391F742E050E06CE371E082E663
:100DB00092E00E948E12811103C081E68D8307C0EC
:100DC000823041F480913C018D83882349F0DF918A
:100DD000CF9108954CE351E066E483E05FD2EDCF1C
:100DE000CE01DF91CF918BCF5F926F927F928F92E6
:100DF0009F92AF92BF92CF92DF92EF92FF920F93AA
:100E00001F93CF93DF935C0163E582E692E062DD9E
:100E100082E692E00E941B1382E692E00E94C210DA
:100E20000397D4F343E050E06CE371E082E692E094
:100E30000E948E12833009F0EDC080913C01833511
:100E400009F0E8C0E0903D0150903E016EE482E67A
:100E500092E040DD60E482E692E03CDD82E692E0F2
:100E60000E941B13612C912C82E692E00E94C2101A
:100E70000297D4F342E050E06CE371E082E692E046
:100E80000E948E12823061F062E471E08CE391E0A6
:100E90000E94E5134CE351E066E483E0FFD138C0E3
:100EA000F0903C0170903D0122E4F21619F085E4C7
:100EB000F812A7C0072D10E082E692E00E94C2104F
:100EC00080179107CCF3A8016CE371E082E692E011
:100ED0000E948E12781679F199279F938F931F9312
:100EE0000F9388E191E09F938F938CE391E09F9320
:100EF0008F930E94F5134CE351E066E483E0CED17A
:100F0000EDB7FEB738960FB6F894FEBF0FBEEDBF33
:100F100082E692E00E94C210892B09F47BC082E62F
:100F200092E00E94C210892B09F474C082E692E01C
:100F30000E94FB10F4CF8CE3C82E81E0D82EC62D82
:100F4000D92D480121E0821A91088C2F8619871526
:100F500008F055C0F894F50182819381F5E4FF1201
:100F60004AC096012C5331402815390509F043C079
:100F7000F601608159DC182F78942196FFEFCF1A83
:100F8000DF0A8111E2CF25E4F21639F062E582E64C
:100F900092E0A0DC82E4F816B9F1112309F4B8CF8D
:100FA000FE2CFF925F92DF93CF9382EE90E09F93AF
:100FB0008F938CE391E09F938F930E94F5138DB7ED
:100FC0009EB708960FB6F8949EBF0FBE8DBF4CE338
:100FD00051E066E480E0DF91CF911F910F91FF9087
:100FE000EF90DF90CF90BF90AF909F908F907F90C9
:100FF0006F905F9053C1F601608114DCBCCF11E0AB
:10100000C2CF6EEF70E042CF112309F481CF6C2E76
:101010009D2E2ACFDF91CF911F910F91FF90EF90DE
:10102000DF90CF90BF90AF909F908F907F906F9008
:101030005F9008951F93CF93DF93EC01162F1092CA
:101040003C0141E050E06CE371E082E692E00E94F6
:101050008E128130B1F780913C018E3391F742E0DE
:1010600050E06CE371E082E692E00E948E128823E9
:10107000E1F08230A9F480913C01982F1F30C1F03B
:101080008C83823049F11CF58823D9F08130A1F49A
:101090001C8289E48D83CE01DF91CF911F9176CDA3
:1010A0004CE351E066E483E0F9D01F3049F491E667
:1010B0009D83CE0187DC1D82DF91CF911F91089522
:1010C0001C828A819B81DF91CF911F91BCCB8330A1
:1010D00011F38430B1F3F0CFCE01DF91CF911F91A6
:1010E00083CEFF920F931F93CF93DF93EC018A81FE
:1010F0009B8191DB882351F01C8289E48D8385E0FC
:10110000DF91CF911F910F91FF900895F894698915
:101110007A898A819B81DDDA8C017894843091050B
:1011200081F46FEC70E08CE391E00E94E5134CE3F6
:1011300051E066E483E0B2D01C8289E48D83802F85
:10114000DFCF892BE1F3A989BA899996EC91999718
:10115000EA0FFB2FF11D118269897A89FB019081C9
:10116000892F807F803691F050F4803259F14EE023
:1011700051E0803421F766E481E090D0E0CF803EFA
:10118000F1F0803FE1F6CE016FDCD9CF03301105DD
:1011900059F49F70F92EFFE09F1302C0CE0164DC6A
:1011A0006F2DCE0147DFCBCF0230110519F4CE01F0
:1011B000E7DDC5CF0130110509F0C1CFE4CFCE0185
:1011C00076DCBDCF47E051E0D6CFFB010190002097
:1011D000E9F73197AF01461B570BDC01ED91FC910C
:1011E0000280F381E02D0994BF92CF92DF92EF92BB
:1011F000FF920F931F93CF93DF93CDB7DEB76A971C
:101200000FB6F894DEBF0FBECDBF01EA11E088E94A
:10121000C82E81E0D82ECE0101967C019AE0B92E2D
:10122000F80184911F928F93DF92CF92FF92EF92F9
:101230000E94F513F80161817281C7010E94DA13DF
:10124000B70182E692E0C1DFBA8E41E050E0BE0114
:10125000665E7F4F82E692E00E943D110D5F1F4F58
:101260000F900F900F900F900F900F90F1E00A3AAF
:101270001F07B1F682E692E00E942F136A960FB61E
:10128000F894DEBF0FBECDBFDF91CF911F910F91BC
:10129000FF90EF90DF90CF90BF900895EF92FF9274
:1012A0000F931F93CF93DF9300D000D01F92CDB741
:1012B000DEB77A01E82FF0E0E456FE4FE491862F86
:1012C000062E000C990B9F936F931F92EF9382E968
:1012D00091E09F938F938E010F5F1F4F1F930F938A
:1012E0000E94F513B80182E692E06FDFB70182E653
:1012F00092E06BDF8AE08D8341E050E0BE016B5FDE
:101300007F4F82E692E0B9D70FB6F894DEBF0FBEEA
:10131000CDBF0F900F900F900F900F90DF91CF9156
:101320001F910F91FF90EF9008958CE392E0D9DE2A
:101330008530D9F3089568E08FE492E081D86FE4B6
:1013400072E08CE392E0DCCA2F923F924F925F9260
:101350006F927F928F929F92AF92BF92CF92DF92C5
:10136000EF92FF920F931F93CF93DF93CDB7DEB72A
:10137000C257D1090FB6F894DEBF0FBECDBF40E013
:1013800052EC61E070E082E692E00E943D1248EE8D
:1013900053E060E070E082E692E03FD6569A02E0C9
:1013A00087E6E82E82E0F82ECE0101961C0182E647
:1013B00092E0E8D6892B21F082E692E01CD7F7CFA5
:1013C0001F920F93FF92EF923F922F920E94F5137C
:1013D000F10101900020E9F73197AF01421953095B
:1013E000B10182E692E049D782E692E00E942F1393
:1013F0000F900F900F900F900F900F9014E05E9A47
:101400006EE370E080E090E087D35E986EE370E07A
:1014100080E090E081D3115091F763E672E0C10162
:101420000E94E513B10182E692E06CD6882309F4AC
:10143000BECF20E530E0A1016AE082E692E065D609
:10144000892B09F484C0FE01E95AFF4FAB96FFAF28
:10145000EEAFAB97FF93EF93CE01875A9F4FAD96B8
:101460009FAF8EAFAD979F938F933496AF96FFAF9C
:10147000EEAFAF97FF93EF930897E1969FAF8EAFD4
:10148000E1979F938F933897E396FFAFEEAFE39783
:10149000FF93EF932E01F5E54F0E511C5F924F9293
:1014A0008E01035A1F4F1F930F937E018FE5E80EA5
:1014B000F11CFF92EF925E0191E6A90EB11CBF9262
:1014C000AF926E01E3E6CE0ED11CDF92CF923E01C9
:1014D000F5E66F0E711C7F926F924E0187E6880EC3
:1014E000911C9F928F928FE392E09F938F933F92F4
:1014F0002F920E941514F40160818FE492E0D5D9F7
:10150000F701E080F8010081F5012081F6014081BA
:10151000F30160818FE492E0CBD9F20160817181A7
:101520006896CFAC68976A96EFAC6A976C960FADE9
:101530006C9762962FAD629764964FAD64978CE37B
:1015400092E022DA0FB6F894DEBF0FBECDBF4CDEBC
:10155000A9968FADA9978F93A8968FADA8978F93D3
:101560008DE092E09F938F933F922F920E94F5130C
:10157000A1016DE480E092DE82E692E00E942F13EA
:101580006F968FAD6F978F936E968FAD6E978F938B
:10159000A1968FADA1978F93A0968FADA0978F93B3
:1015A000A3968FADA3978F93A2968FADA2978F939B
:1015B000A5968FADA5978F93A4968FADA4978F9383
:1015C000A7968FADA7978F93A6968FADA6978F936B
:1015D0008DED91E09F938F933F922F920E94F51390
:1015E000A1016DE481E05ADE69968FAD69978F9312
:1015F00068968FAD68978F936B968FAD6B978F932F
:101600006A968FAD6A978F936D968FAD6D978F9316
:101610006C968FAD6C978F9363968FAD63978F9316
:1016200062968FAD62978F9365968FAD65978F9316
:1016300064968FAD64978F9367968FAD67978F93FE
:1016400066968FAD66978F938AEA91E09F938F930A
:101650003F922F920E94F5130FB6F894DEBF0FBE93
:10166000CDBFA1016DE481E019DE8FE492E0FBD8EB
:101670000FB6F8948091570290915802A0915902A8
:10168000B0915A020FBECE58DF4F0FB6F894DEBFAE
:101690000FBECDBFDF91CF911F910F91FF90EF90C3
:1016A000DF90CF90BF90AF909F908F907F906F9082
:1016B0005F904F903F902F9008951DBA1092680050
:1016C0001CBC10BE1FBA10927A0010926E001092CD
:1016D0006F0010927100109272001092C900ECEB32
:1016E000F0E0108214B817B81AB81DB810BA1082FA
:1016F00015B818B81BB81EB811BA0895F894E1E6E9
:10170000F0E020E82083108283E084BD85BDEEE612
:10171000F0E080818160808381E08093800092E0AE
:101720009093810080939000909391009093C000DB
:1017300094E09093C1008093C2008093C300109204
:10174000C40086E880937A0020937B0010927E008C
:1017500010927D0020D278940895893170F4EBE7DF
:10176000F2E0880FE80FF11D2591E491F0E09FB7BA
:10177000F8948181822B81839FBF0895893118F568
:10178000A5EFA80FAC3000F5EDEAF2E0AA0FEA0FE2
:10179000F11DA591B0E09591EBE7F2E0880FE80F1D
:1017A000F11D2591E491F0E04FB7F8943181822F3B
:1017B0008095232F28232183228182238283EC9109
:1017C0009E239C934FBF08959FEFB0E0A0E0E4CF2D
:1017D000893110F5A5EFA80FAC30F8F4EDEAF2E08E
:1017E000AA0FEA0FF11DA591B0E09591EBE7F2E0A9
:1017F000880FE80FF11D3591E491F0E04FB7F894B0
:101800008181232F2095282321838281832B82832A
:10181000EC919E239C934FBF08959FEFB0E0A0E012
:10182000E5CF613009F499CF623009F4D1CFA6CF6A
:10183000002039F000C0E93150F4EE0FE85DF34FBD
:101840000994E93120F4EE0FE65AF34F0994089514
:10185000289A0895299A08952A9A08952B9A089506
:101860002F9A6AC0589A58C0599A08955A9A08955A
:101870005B9A0895469A66C0479A6AC05E9A089530
:101880005F9A6CC02C9A08952D9A4AC02E9A4EC029
:101890008F9A08958E9A08958D9A08958C9A089536
:1018A000899A0895889A08955C9A08955D9A089592
:1018B000769A089528980895299808952A98089561
:1018C0002B9808952F9838C0589826C05998089595
:1018D0005A9808955B980895469834C0479838C040
:1018E0005E9808955F983AC02C9808952D9818C076
:1018F0002E981CC08F9808958E9808958D980895FD
:101900008C98089589980895889808955C9808950A
:101910005D98089576980895E4B5EF7DE4BD089547
:10192000E0918000EF77E09380000895E0918000DF
:10193000EF7DE09380000895E0918000E77FE093E1
:1019400080000895E0919000EF77E0939000089573
:10195000E091C000EF77E093C0000895E091C200ED
:10196000E77FE093C2000895E93130F4EE0FEE0F07
:10197000FF27E054F34F0994EE270895E1E008951E
:10198000E3B1E170D9F70895E3B1E270B9F70895D2
:10199000E3B1E47099F70895E3B1E87079F7089539
:1019A000E3B1E07859F70895E9B1E17039F70895A6
:1019B000E9B1E27019F70895E9B1E470F9F6089514
:1019C000E9B1E870D9F60895E6B1E074B9F6089582
:1019D000E6B1E07899F60895E9B1E07479F60895F2
:1019E000E9B1E07859F60895E3B1E07139F6089568
:1019F000E3B1E07219F60895E3B1E07429F50895B2
:101A0000EFB1E07809F50895EFB1E074E9F40895D5
:101A1000EFB1E072C9F40895EFB1E071A9F408954F
:101A2000EFB1E27089F40895EFB1E17069F40895BF
:101A3000E9B1E07149F40895E9B1E07229F408953B
:101A4000ECB1E07409F40895E1E00895F89484B7E6
:101A5000877F84BF809160008061809360001092D6
:101A6000600080E29EE40197F1F781E08093E0005E
:101A700080E28093D80080E69AEE0197F1F71DDEB0
:101A80000C94003FFFCFF89418DE80E69AEE0197A1
:101A9000F1F70C940000FFCF8F938FB78F93809155
:101AA00056028D5F8D37D0F4809356028091570295
:101AB0008F5F80935702D8F0809158028F4F8093A8
:101AC0005802A8F0809159028F4F8093590278F004
:101AD00080915A028F4F80935A0209C08D5780938C
:101AE0005602809157028E5F8093570228F78091AB
:101AF0005B028C5F80935B0258F080915C028F4F99
:101B000080935C0228F080915D028F4F80935D028C
:101B10008F918FBF8F911895CF92DF92EF92FF92A6
:101B20006B017C0119D09B01C114D104E104F104C3
:101B300029F4FF90EF90DF90CF9008950DD0621BB5
:101B4000730B683E734080F381E0C81AD108E10846
:101B5000F10828513C4FE8CF0FB6F89466B515B29E
:101B600070915B0280915C0290915D020FBE10FE4D
:101B700005C06F3F19F07C5F8F4F9F4F11240024E9
:101B8000660F001C660F001C702908958091E80004
:101B900080FFFCCF08958091D80087FF02C085FFA9
:101BA0001BC081E08093D70080EA8093D80082E157
:101BB00089BD09B400FEFDCF80E98093D800109262
:101BC000E000109272021092710210927002109254
:101BD000E1008DE08093E20008951F920F920FB60E
:101BE0000F9211242F933F934F935F936F937F93A3
:101BF0008F939F93AF93BF93EF93FF939091E100E7
:101C00001092E10093FF11C01092E90081E08093EF
:101C1000EB001092EC0082E28093ED0088E080936C
:101C2000F000109272021092700292FF1DC080911B
:101C300072028823C9F080916102882359F0815093
:101C400080936102811106C084E08093E9008AE3F9
:101C50008093E80080916002882331F08150809366
:101C60006002811101C0F2DE90FF0CC080E1809320
:101C7000E2001092720281E08093710280EA809308
:101C8000D80019BC80917102882379F094FF0DC0AF
:101C900082E189BD09B400FEFDCF80E98093D800C0
:101CA0008DE08093E20010927102FF91EF91BF915D
:101CB000AF919F918F917F916F915F914F913F91E4
:101CC0002F910F900FBE0F901F9018951F920F929B
:101CD0000FB60F921124EF92FF920F931F932F9341
:101CE0003F934F935F936F937F938F939F93AF93A4
:101CF000BF93CF93DF93EF93FF931092E90080910E
:101D0000E80083FF20C0D091F100C091F100E09085
:101D1000F100F090F1000091F1001091F10020919C
:101D2000F1003091F10082EF8093E800C63009F0B5
:101D300059C0E5ECF2E085919591E816F90639F085
:101D40003596C150C1F781E28093EB002BC085919D
:101D500095910817190711F03396F3CF45915591D6
:101D600084912F3F310519F010F02FEF30E08217EA
:101D700008F4282F3EEF8091E800982F9570D9F352
:101D800082FD10C0822F213208F080E2982F91113D
:101D900022C0922F981B892F3093E800911119C00F
:101DA0002032B8F4FF91EF91DF91CF91BF91AF91C5
:101DB0009F918F917F916F915F914F913F912F9163
:101DC0001F910F91FF90EF900F900FBE0F901F90FB
:101DD0001895282FD0CFFA0145914093F100AF011B
:101DE0009150D5CFC53049F48EEF8093E800CEDE18
:101DF0008E2D80688093E300D5CFC93021F5D111B5
:101E0000A2CFE092720210927002109261028EEFE5
:101E10008093E80081E0E8E8F3E08093E9009591A1
:101E20009093EB00992331F095919093EC0095916C
:101E30009093ED008F5F853081F78EE18093EA000B
:101E40001092EA00AFCFC83061F4D03809F07BCFF0
:101E50009DDE809172028093F1008EEF8093E80006
:101E6000A1CFC13279F4D13A09F06DCF8FDEE0E035
:101E7000F1E080818093F100319681E0E730F8074E
:101E8000C1F7EBCFC03209F047C0D13209F05BCFC8
:101E90008091E80082FFFCCFE0E0F1E08091F1006A
:101EA0008083319691E0E730F907C1F78BEF80939B
:101EB000E8008EEF8093E80030910001409101012D
:101EC000809102012091030190E0B0E0A0E0DC01EC
:101ED00099278827942B832BB22B86389105A1054F
:101EE000B10521F48FE0809360025CCF86399105C3
:101EF000A105B10509F056CF84E08093E9009FEF7A
:101F00008091EE00837009F4BEDD9093E80080912B
:101F1000E80082FDFCCFF4CFC23239F4D13209F0AF
:101F200012CFE092700232DE98CFC33221F4D13268
:101F300009F009CFF8CFC11111C028DED23849F419
:101F40000093E900C091EB00C5FBCC27C0F91092CB
:101F5000E900C093F1001092F1007FCF8C2F8D7FAC
:101F6000813009F0F0CED23009F0EDCEEF2809F043
:101F7000EACE0F778FEF800F863008F0E4CE8EEF39
:101F80008093E8000093E900C33009F4DCCE89E1D6
:101F90008093EB0081E090E001C0880F0A95EAF79A
:101FA0004DCFCF92DF92EF92FF92CF93DF93EC0170
:101FB0000FB6F894C0905702D0905802E0905902A2
:101FC000F0905A020FBEE881F9810284F385E02D7A
:101FD000CE01099597FF1AC00FB6F8948091570269
:101FE00090915802A0915902B0915A020FBE8C19DB
:101FF0009D09AE09BF094B815C816D817E8184178B
:102000009507A607B707F8F28FEF9FEFDF91CF9103
:10201000FF90EF90DF90CF900895FC0143835483AD
:102020006583768308956F927F928F929F92AF928D
:10203000BF92CF92DF92EF92FF920F931F93CF93B5
:10204000DF93DB01EC91E1113AC081E0DF91CF91A8
:102050001F910F91FF90EF90DF90CF90BF90AF90C6
:102060009F908F907F906F900895D0E0C0E0C30163
:1020700098DF181619060CF5F601EE0DFF1D2081EC
:10208000022E000C330B8217930711F5BFEFEB1AEA
:10209000FB0AEA14FB04C8F60115110531F3F4013B
:1020A000EC0FFD1F2081022E000C330B82179307CB
:1020B000E1F62196C017D107D0F280E0C7CF4901E1
:1020C0005A016B013C01D0E0C0E0F12CE12CCFCFF4
:1020D000F12CE12CE1CF0F931F939A01FA010190AB
:1020E0000020E9F731978F01041B150BFB010190CC
:1020F0000020E9F73197AF01461B570B94DF1F9182
:102100000F91089550E040E0E6CFAF92BF92CF929A
:10211000DF92EF92FF920F931F93CF93DF935C01B7
:10212000E9012097C9F0690181E0C81AD1088A0144
:10213000D0E0C0E0E62E660FFF08CC15DD0550F4B8
:10214000C5012FDFE816F90629F097FF11C081E0DD
:10215000F5018783F8011082CE01DF91CF911F91A5
:102160000F91FF90EF90DF90CF90BF90AF900895C8
:10217000F80181938F012196E0CFC0DAE5D8D5D858
:10218000FECF81C2FC018FB7F89490917202911139
:102190000CC090E08FBF2085318537FD03C09F3F85
:1021A00009F09F5F892F90E0089593E09093E900F4
:1021B0009091F2009111EECF2091E80022FFE9CF3B
:1021C00025FDE7CF2BE62093E800E4CFCF93DF9304
:1021D000EC018885998597FF09C0E881F98102841F
:1021E000F385E02DCE0109959987888788859985A3
:1021F000DF91CF910895FC012085318537FD07C01F
:102200004FEF5FEF51874087C901992708959FB726
:10221000F89480917202811104C09FBF8FEF9FEFED
:10222000089583E08093E9002BE68091E80085FD26
:1022300005C082FFF2CF2093E800F7CF8091F10034
:102240002091E80025FD03C02BE62093E8009FBF06
:1022500090E0089580917202882361F08FB7F8941E
:1022600094E09093E9009091F2008FBF80E4891B85
:1022700090E0089590E080E00895BF92CF92DF92C1
:10228000EF92FF920F931F93CF93DF937C01809186
:102290007202811110C081E0F701828310E000E03A
:1022A000C801DF91CF911F910F91FF90EF90DF90C8
:1022B000CF90BF9008952FB7F89484E08093E90001
:1022C00080915F02882341F08091E80085FD02C083
:1022D0002FBFE1CF10925F0210E000E084E0D82E23
:1022E00090E4C92EA1EFB0E03AE3B32E33E04115FC
:1022F000510509F4C0C08091E400815F9091E8002D
:1023000095FD16C02FBF9091E400891306C081E0AF
:1023100080935F02F7018283C3CF90917202911183
:1023200002C081E0F7CF2FB7F894D092E900E6CF52
:102330008091F2009C2D981B9417150611F008F05F
:10234000942FE92FF0E04E1B5F0B0E0F1F1FEB01C8
:10235000E0E4E91BE03428F4EE0FFF27EE54FE4ED4
:10236000099480C099919C9399919C9399919C9385
:1023700099919C9399919C9399919C9399919C93F9
:1023800099919C9399919C9399919C9399919C93E9
:1023900099919C9399919C9399919C9399919C93D9
:1023A00099919C9399919C9399919C9399919C93C9
:1023B00099919C9399919C9399919C9399919C93B9
:1023C00099919C9399919C9399919C9399919C93A9
:1023D00099919C9399919C9399919C9399919C9399
:1023E00099919C9399919C9399919C9399919C9389
:1023F00099919C9399919C9399919C9399919C9379
:1024000099919C9399919C9399919C9399919C9368
:1024100099919C9399919C9399919C9399919C9358
:1024200099919C9399919C9399919C9399919C9348
:1024300099919C9399919C9399919C9399919C9338
:1024400099919C9399919C9399919C9399919C9328
:1024500099919C9399919C9399919C9399919C9318
:1024600099919C93BE018091E80085FFB092E800AD
:10247000309361023CCF2FBF13CF2FEF3FEFFC0112
:102480003187208788DB0FB6F894809157029091AE
:102490005802A0915902B0915A020FBE9C0180913E
:1024A0007202882329F068EC70E080E090E034CB81
:1024B00080917102882301F10FB6F8944091570280
:1024C000509158026091590270915A020FBE80914A
:1024D0007102882389F00FB6F89480915702909189
:1024E0005802A0915902B0915A020FBE841B950B5D
:1024F0008B3F910560F308950FB6F89480915702D1
:1025000090915802A0915902B0915A020FBE821BBD
:10251000930B853C994008F4C2CF08958F929F9207
:10252000AF92BF92CF92DF92EF92FF920F931F93E1
:10253000CF93DF93EC010FB6F894C0905702D09080
:102540005802E0905902F0905A020FBE4115510511
:1025500029F18885998597FD11C0FB0180838FEF54
:102560009FEF99878887415051096F5F7F4F91E0B6
:102570004115510521F441E050E010C090E080E0A9
:10258000FA01492F582F13E00BE68FB7F89490917A
:102590007202911111C08FBF81E08F83CA01DF9158
:1025A000CF911F910F91FF90EF90DF90CF90BF9050
:1025B000AF909F908F9008951093E9009091E8005C
:1025C00092FFE9CF2091F2002E171F0611F008F0BC
:1025D0002E2F362FDB019A2F931B921720F4909108
:1025E000F1009D93F8CF30E0620F731F9091E800E7
:1025F00095FF0093E8008FBF420F531FE21BF30BC0
:1026000069F20FB6F8948091570290915802A09108
:102610005902B0915A020FBE8C199D09AE09BF092B
:102620008B809C80AD80BE8088159905AA05BB056E
:1026300008F4ABCFB1CF8FB7F89490917202992381
:1026400061F090916102992341F094E09093E90048
:102650009AE39093E800109261028FBF0895EBCF48
:10266000E2E6F2E011861086128288EE93E0A0E0A6
:10267000B0E083839483A583B68317828EE291E0D2
:10268000918380830895CF93DF930097E9F0FC0155
:10269000329713821282A0916E02B0916F02ED0107
:1026A00030E020E01097A1F420813181820F931F48
:1026B00020916C0230916D022817390709F061C032
:1026C000F0936D02E0936C02DF91CF910895EA01DF
:1026D000CE17DF07E8F54A815B819E014115510560
:1026E000B1F7E901FB83EA8349915991C40FD51FE2
:1026F000EC17FD0761F4808191810296840F951F8C
:10270000E90199838883828193819B838A83F0E0A6
:10271000E0E012968D919C9113970097B9F52D9159
:102720003C911197CD010296820F931F20916C026C
:1027300030916D022817390739F6309751F510920C
:102740006F0210926E02B0936D02A0936C02BCCF28
:10275000D383C28340815181840F951FC817D90745
:1027600061F44E5F5F4F88819981480F591F5183F3
:1027700040838A819B81938382832115310509F0EF
:10278000B0CFF0936F02E0936E029ECFFD01DC01AB
:10279000C0CF13821282D7CFEE0FFF1F0590F491A6
:1027A000E02D0994911193C4803219F0895085501D
:1027B000D0F70895FB01DC010D900020E9F7119797
:1027C00005900D920020E1F70895FB01DC010590D2
:1027D0000D920020E1F70895FB01DC0102C0019099
:1027E0000D9241505040D8F70895AEE0B0E0EAEFC6
:1027F000F3E181C50D891E898EE08C831A830983DC
:102800008FEF9FE79E838D83AE01475E5F4F6F8999
:10281000788DCE0101961FD02F813885020F131FAE
:10282000F80110822E96E4E082C5AEE0B0E0EAE165
:10283000F4E163C58DE08C838B899C899A838983BD
:10284000AE01495E5F4F6D897E89CE0101964AD304
:102850002E96E2E06EC5ABE0B0E0E0E3F4E13DC50A
:102860007C013B018A01FC0117821682838181FF72
:10287000BAC1CE0101965C01F7019381F30193FD8A
:10288000859193FF81913F01882309F449C18532E5
:1028900039F493FD859193FF81913F01853221F4B5
:1028A000B70190E074D4E8CF912C212C312CFFE1BA
:1028B000F31538F08B3211F190F4803209F1833244
:1028C00029F137FC3CC020ED280F2A3050F536FEA8
:1028D00020C08AE0989E200D1124922E06C08D32D1
:1028E00091F0803371F7689430F8F30193FD85918E
:1028F00093FF81913F018111DACF21C0689431F8B3
:10290000689432F8F2CF689433F8EFCF689434F8D3
:10291000ECCFEAE02E9E200D1124222E689435F88B
:10292000E4CF8E3229F436FCFBC0689436F8DDCF54
:102930008C3619F4689437F8D8CF8836B1F2982FCE
:102940009F7D95549330D8F0833691F18337B1F160
:10295000833509F05EC02801F2E04F0E511CF801EA
:10296000C080D180692D70E036FC02C06FEF7FEF30
:10297000C601BBD34C01689437F882010AC00C5FD2
:102980001F4FFFE3F98388248394912C6501E89419
:1029900037F833FE2AC0522C8114910459F5552082
:1029A00009F46ACFB70180E290E0F1D35A94F7CFEF
:1029B000F801808189830E5F1F4FE5CF2801F2E087
:1029C0004F0E511CF801C080D180692D70E036FC9B
:1029D00002C06FEF7FEFC60193D34C018201D7CFC6
:1029E000B70180E290E0D3D32A942814190409F0A7
:1029F000B8F7D1CFF60137FC859137FE81916F0191
:102A0000B70190E0C4D351105A94F1E08F1A9108A5
:102A1000C3CF843619F0893609F073C0F80137FE48
:102A200067C060817181828193810C5F1F4FF32D9C
:102A3000FF763F2E97FF09C0909580957095619520
:102A40007F4F8F4F9F4F689437F82AE030E0A50101
:102A5000E6D3C82ECA188C2C432C36FE0CC0E89442
:102A600040F8C91440F434FE05C032FC03C0F32D15
:102A7000FE7E4F2E892C44FE90C0FE01EC0DF11D10
:102A80008081803309F082C0242D297E422E842D3E
:102A90008870582E43FC8FC040FE89C09C2C821445
:102AA00018F42C0C922C981844FE8BC0B70180E3CC
:102AB00090E06DD342FE08C088E790E041FE02C07E
:102AC00088E590E0B70163D3C91408F486C0CA94BE
:102AD000D12C9FEFC91AD90ACA0CDB1CF6018291CE
:102AE0006F01B70190E053D3AC14BD04B9F757CFD1
:102AF00060817181072E000C880B990B0E5F1F4FB0
:102B000096CFD32CE894D4F82AE030E0853731F121
:102B1000232D297FD22E8F36F9F040F48835A1F08D
:102B2000F701868197812B96E2E1F3C3803749F064
:102B30008837B1F7D4FE02C06894D2F820E130E0C3
:102B40000DC06894D4F8F6CF34FE03C0822F86609F
:102B5000D82E20E132E002C028E030E0F801D7FEB4
:102B60000EC060817181828193810C5F1F4FA5012E
:102B700056D3C82ECA183D2CE89437F86CCF608124
:102B8000718190E080E00E5F1F4FF1CF42FC02C0E8
:102B900083947DCF839483947ACF842D867809F4AF
:102BA00076CFF6CFB70180E290E0F1D28394821421
:102BB000C8F3512C79CF522C5818821408F474CFD2
:102BC000F8CF842D867809F47FCF8BE241FE80E236
:102BD00047FC8DE2B70190E076CFB70180E390E04B
:102BE000D6D29A9471CF8FEF9FEF9DCF20FD09C071
:102BF000FC0123FD05C022FF02C073836283518361
:102C00004083089544FD17C046FD1DC0DB01FC0153
:102C1000AA0FBB1FEE1FFF1F1094D1F76A0F7B1F77
:102C20008E1F9F1F660F771F881F991F620F711DD0
:102C3000811D911D089533E0660F771F881F991F2E
:102C40003150D1F7F3CF34E0F7CF0F931F93CF93E9
:102C5000DF938C01C8015FD2EC0197FD06C0A2DDB5
:102C6000892BC1F7B801CE01C2D2CE01DF91CF913D
:102C70001F910F9108958F929F92AF92BF92EF9202
:102C8000FF920F931F93CF93DF938C01D62F7A017E
:102C9000B22E41D29C0133272B32310529F02D323F
:102CA0003105A1F46894B7F8D15061F480E0DF9168
:102CB000CF911F910F91FF90EF90BF90AF909F9099
:102CC0008F900895C80127D297FDF0CFCB2DCD7FEF
:102CD0002B2D2073E9F48033D9F4AA24AA94AD0EE5
:102CE00079F0C80118D297FD0BC0282F2F7D283509
:102CF00059F4C264D25021F0C8010DD297FF08C028
:102D0000812C912C54011AC0B6FE29C0C260DA2D64
:102D1000812C912C540120ED280F283018F1C4FD8E
:102D200009C02A30F8F0C6FF05C02F7D3FEE320FF4
:102D30003630B8F0B8015BD2C1FFB8CFC7FF08C0CA
:102D4000B094A09490948094811C911CA11CB11CFF
:102D50002C2FB501A401C70149DF81E0A8CFC261D2
:102D6000D6CF27504C2FC501B4014CDF4B015C017D
:102D7000C260D15019F3C801CED197FFCCCFDCCFC0
:102D8000A0E2B0E0E5ECF6E1ADC25C01962E7A017E
:102D9000CE0101966C0180E2F60111928A95E9F765
:102DA000F501B381890130E020E0712C812CA0E095
:102DB00041E050E0F801B3FD8591B3FF8191982F78
:102DC0008F01811106C010E000E0C801A096EDE07F
:102DD000A5C28E3519F42115310541F1A21713064C
:102DE0004CF48D3549F18D3229F4811006C08824C8
:102DF00083941DC0882009F462C0E92FE695E6950A
:102E0000E695EC0DFD2DF11D892F8770BA0101C0EB
:102E1000660F8A95EAF78081682B6083791651F0F6
:102E2000971510F49F5FE9CF9150E7CFA1E02F5F96
:102E30003F4FC0CF812CFBCF882019F08E8180625C
:102E40008E83AA2359F0F6019E012F5D3F4F8081AA
:102E5000809580833196E217F307C9F7882483941D
:102E6000C50159D197FD15C0E82FE695E695E69581
:102E7000EC0DFD2DF11D208130E0AC014770552790
:102E800002C0359527954A95E2F720FD05C0B501AA
:102E9000AED1882069F097CFE114F10429F0F70151
:102EA0008083C70101967C019A94812C9110D8CF20
:102EB000E114F10409F489CFF701108286CFE82FDD
:102EC000E695E695E695EC0DFD2DF11D982F977092
:102ED000BA0101C0660F9A95EAF79081692B608369
:102EE000782EA5CFB0E0A0E0E7E7F7E1F9C16C01EB
:102EF000EB015A01FC0117821682512CF601E38086
:102F0000FE01E3FC8591E3FE8191182FEF018823F8
:102F1000C9F090E047DC892B19F0C60196DEEECFB0
:102F2000153241F4FE01E3FC1591E3FE1191EF012E
:102F3000153259F4C601EFD097FD88C01817F1F289
:102F4000B60155D1852D90E085C000E01A3231F4EC
:102F5000E3FC1591E3FE1191EF0101E0F12C20ED6E
:102F6000210F2A3038F101FF34C0FF2059F3183601
:102F700099F11C3609F43AC0112321F3612F70E056
:102F80008CEA90E0A7D0892BE9F2912C812C00FDEE
:102F900006C0F50180809180C50102965C011E3655
:102FA00069F5F6014681578170E060E0202FC40189
:102FB0001DDEA4CF02606F2D70E090E080E040E263
:102FC00021DEF62EFE01E3FC1591E3FE1191EF01E7
:102FD000C6CFFF24FA94CBCFFE01E3FC1591E3FEAC
:102FE0001191EF01183609F0C7CF08600460FE01A7
:102FF000E3FC1591E3FE1191EF01BECF1336B9F456
:1030000001FD02C0FF24F394C60185D097FD1EC0C8
:103010008114910429F0F4018083C40101964C01CC
:10302000FA94F110F1CF00FD69CF539467CF1B35AF
:10303000A9F49E01A4016F2DC601A2DEEC01892B2B
:1030400091F7F6018381807309F47CCF8FEF9FEFB6
:10305000511078CFCDB7DEB7EFE05EC1C601F5DD28
:1030600097FDF4CF1F3689F130F4143641F019364C
:1030700039F0006405C01337B1F01537D1F700629D
:10308000202FA4016F2DC601F6DD8111CCCFD9CF41
:103090008114910429F0F4016082C40101964C016D
:1030A000FA94FF2059F0C60136D03C0197FD06C0C6
:1030B00079DB892B69F3B601C30199D0811491049E
:1030C00009F4B1CFF4011082AECF0061D9CF9927B6
:1030D00088270895FC010590061621F00020D9F7F5
:1030E000C00108953197CF010895FC01059061500A
:1030F00070400110D8F7809590958E0F9F1F08950E
:10310000FC016150704001900110D8F780959095B6
:103110008E0F9F1F0895CF93DF93EC012B8120FF2B
:103120001AC026FF0CC02F7B2B838E819F810196B6
:103130009F838E838A8190E0DF91CF91089522FF53
:1031400018C0E881F9818081082E000C990B009746
:1031500029F420622B838FEF9FEFEECF3196F98316
:10316000E8832E813F812F5F3F4F3F832E83992736
:10317000E3CFEA85FB85099597FFF3CF2B81019675
:1031800021F080E2822B8B83E6CF80E1FBCF0F938F
:103190001F93CF93DF93182F092FEB018B8181FDB4
:1031A00009C01FEF0FEF812F902FDF91CF911F915B
:1031B0000F91089582FF14C02E813F818C819D81E3
:1031C000281739073CF4E881F981CF0101969983EA
:1031D000888310838E819F8101969F838E83E3CFA6
:1031E000E885F985812F0995892BA1F3DACFFB01B9
:1031F000238120FF11C026FD0FC08F3F980771F07B
:1032000082832F7D206423832681378121503109D9
:1032100037832683992708958FEF9FEF0895FA014A
:10322000AA27283051F1203181F1E8946F936E7F05
:103230006E5F7F4F8F4F9F4FAF4FB1E03ED0B4E0F6
:103240003CD0670F781F891F9A1FA11D680F791F37
:103250008A1F911DA11D6A0F711D811D911DA11D48
:1032600020D009F468943F912AE0269F1124301958
:10327000305D3193DEF6CF010895462F4770405DF3
:103280004193B3E00FD0C9F7F6CF462F4F70405DA2
:103290004A3318F0495D31FD4052419302D0A9F7FD
:1032A000EACFB4E0A6959795879577956795BA95F7
:1032B000C9F700976105710508959B01AC010A2EBD
:1032C00006945795479537952795BA95C9F7620F94
:1032D000731F841F951FA01D08952F923F924F9238
:1032E0005F926F927F928F929F92AF92BF92CF9296
:1032F000DF92EF92FF920F931F93CF93DF93CDB79F
:10330000DEB7CA1BDB0B0FB6F894DEBF0FBECDBF16
:1033100009942A88398848885F846E847D848C84E7
:103320009B84AA84B984C884DF80EE80FD800C81F0
:103330001B81AA81B981CE0FD11D0FB6F894DEBFD3
:0C3340000FBECDBFED010895F894FFCF43
:10334C0000E100000000084C495354454E00544124
:10335C004C4B0000000000670468044D41494E00CE
:10336C0049454300494641434500000000006A04BA
:0C337C003D112A112F13C210FB10E610A7
:00000001FF
